:020000040000FA
:100000000C9436000C945E000C945E000C945E0020
:100010000C945E000C945E000C945E000C945E00E8
:100020000C945E000C945E000C945E000C945E00D8
:100030000C945E000C945E000C945E000C945E00C8
:100040000C9464020C945E000C9432020C940C022A
:100050000C945E000C945E000C945E000C945E00A8
:100060000C945E000C945E00AE02230411241FBEAB
:10007000CFEFD8E0DEBFCDBF21E0A4E4B1E001C006
:100080001D92A63FB207E1F711E0A0E0B1E0E0E386
:10009000FDE002C005900D92A434B107D9F710E03D
:1000A000C5E3D0E004C02197FE010E949304C4334D
:1000B000D107C9F70E94E9020C948B060C9400004A
:1000C000AF92BF92CF92DF92EF92FF920F931F9366
:1000D000CF93DF936C017B018B01040F151FEB01A4
:1000E0005E01AE18BF08C017D10759F06991D6015B
:1000F000ED91FC910190F081E02DC6010995892BCD
:1001000079F7C501DF91CF911F910F91FF90EF908B
:10011000DF90CF90BF90AF900895FC01538D448D38
:10012000252F30E0842F90E0821B930B541710F0A2
:10013000CF96089501970895FC01918D828D9817AF
:1001400061F0A28DAE0FBF2FB11D5D968C91928D87
:100150009F5F9F73928F90E008958FEF9FEF0895B8
:10016000FC01918D828D981731F0828DE80FF11D81
:10017000858D90E008958FEF9FEF0895FC01918D9C
:10018000228D892F90E0805C9F4F821B91098F7395
:10019000992708958FE491E00E94BE0021E0892B09
:1001A00009F420E0822F089580E090E0892B29F067
:1001B0000E94CA0081110C9400000895FC01A48DD6
:1001C000A80FB92FB11DA35ABF4F2C91848D90E079
:1001D00001968F739927848FA689B7892C93A0895C
:1001E000B1898C91837080648C93938D848D9813E6
:1001F00006C00288F389E02D80818F7D8083089579
:10020000EF92FF920F931F93CF93DF93EC0181E066
:10021000888F9B8D8C8D98131AC0E889F98980810D
:1002200085FF15C09FB7F894EE89FF896083E88940
:10023000F98980818370806480839FBF81E090E032
:10024000DF91CF911F910F91FF90EF900895F62EBF
:100250000B8D10E00F5F1F4F0F731127E02E8C8D59
:100260008E110CC00FB607FCFACFE889F98980819E
:1002700085FFF5CFCE010E94DE00F1CFEB8DEC0FB4
:10028000FD2FF11DE35AFF4FF0829FB7F8940B8FBB
:10029000EA89FB8980818062CFCFCF93DF93EC0125
:1002A000888D8823B9F0AA89BB89E889F9898C915E
:1002B00085FD03C0808186FD0DC00FB607FCF7CF1A
:1002C0008C9185FFF2CF808185FFEDCFCE010E941A
:1002D000DE00E9CFDF91CF9108953FB7F894809188
:1002E000490190914A01A0914B01B0914C0126B572
:1002F000A89B05C02F3F19F00196A11DB11D3FBF5E
:10030000BA2FA92F982F8827BC01CD01620F711D2C
:10031000811D911D42E0660F771F881F991F4A9526
:10032000D1F7089542E050E068E171E08FE491E098
:100330000C946000CF93DF93FC0101900020E9F75B
:100340003197AF01481B590BBC018FE491E00E942B
:100350006000EC010E9492018C0F9D1FDF91CF91F4
:100360000895FC0180819181009711F00C9435056E
:1003700008950F931F93CF93DF93EC0188819981A8
:10038000009759F02A813B812617370730F081E02A
:10039000DF91CF911F910F9108958B016F5F7F4F78
:1003A0000E94BE05009759F0998388831B830A83B6
:1003B0002C813D81232B59F7FC011082E8CF80E08E
:1003C000E7CFEF92FF920F931F93CF93DF93EC0150
:1003D0007B018A01BA010E94B9012881398181110A
:1003E00014C02115310519F0C9010E943505198283
:1003F00018821D821C821B821A82CE01DF91CF914E
:100400001F910F91FF90EF9008951D830C83B7010A
:10041000C9010E948406F1CF1F920F920FB60F926E
:1004200011242F933F934F935F936F937F938F93F9
:100430009F93AF93BF93EF93FF938FE491E00E945C
:10044000DE00FF91EF91BF91AF919F918F917F91CE
:100450006F915F914F913F912F910F900FBE0F9031
:100460001F9018951F920F920FB60F9211242F9381
:100470008F939F93EF93FF93E0915F01F091600161
:100480008081E0916501F091660182FD1BC0908141
:10049000809168018F5F8F7320916901821741F00D
:1004A000E0916801F0E0E15BFE4F958F8093680179
:1004B000FF91EF919F918F912F910F900FBE0F9011
:1004C0001F9018958081F4CF1F920F920FB60F9254
:1004D00011242F933F938F939F93AF93BF9380915A
:1004E000450190914601A0914701B091480130919A
:1004F000440123E0230F2D3758F50196A11DB11DAE
:10050000209344018093450190934601A0934701B5
:10051000B09348018091490190914A01A0914B010B
:10052000B0914C010196A11DB11D8093490190939A
:100530004A01A0934B01B0934C01BF91AF919F91A1
:100540008F913F912F910F900FBE0F901F90189594
:1005500026E8230F0296A11DB11DD2CFEFE4F1E0F2
:100560001382128288EE93E0A0E0B0E0848395834A
:10057000A683B7838AE091E09183808385EC90E045
:100580009587848784EC90E09787868780EC90E05D
:10059000918B808B81EC90E0938B828B82EC90E04E
:1005A000958B848B86EC90E0978B868B118E128EC8
:1005B000138E148EECEEF1E01182108213821282FF
:1005C0001582148242E050E06BE171E0CF010C949F
:1005D000E101CF93DF93CDB7DEB768970FB6F894FC
:1005E000DEBF0FBECDBF789484B5826084BD84B574
:1005F000816084BD85B5826085BD85B5816085BD1E
:1006000080916E00816080936E00109281008091D5
:10061000810082608093810080918100816080935D
:100620008100809180008160809380008091B10082
:1006300084608093B1008091B00081608093B000AD
:1006400080917A00846080937A0080917A00826041
:1006500080937A0080917A00816080937A00809103
:100660007A00806880937A001092C100E0915F0167
:10067000F091600182E08083E0915B01F0915C0188
:100680001082E0915D01F0915E018FEC8083109209
:100690006701E0916301F091640186E08083E0915D
:1006A0006101F0916201808180618083E09161014C
:1006B000F0916201808188608083E0916101F09116
:1006C0006201808180688083E0916101F091620124
:1006D00080818F7D80838EE191E00E949A0180E38A
:1006E00091E00E949A018E010F5F1F4F90E0C92E8A
:1006F00090E0D92E80914D0190914E011C8A1B8A69
:100700001E8A1D8A188E1F8A4AE0B8010E9427049B
:10071000F80101900020E9F73197AF01401B510B20
:10072000B801CE0143960E94E101A090EC01B09087
:10073000ED01A114B10409F479C0E090F001F0904A
:10074000F101E114F104B9F08F89988DE80EF91EDA
:10075000B701CE0143960E94B901882309F466C00F
:100760002B893C898F89988DB501820F931F0E9438
:100770008406F88EEF8A1A8219821C821B821E82DE
:100780001D826B897C896115710529F04F89588D0F
:10079000C8010E94E101CE0143960E94B1014D8142
:1007A0005E8169817A818FE491E00E9460000E94FD
:1007B00092010E946D012B013C0188EE882E83E09E
:1007C000982EA12CB12C0E946D016419750986091F
:1007D0009709683E734081059105A8F321E0821ACC
:1007E0009108A108B10888EE480E83E0581E611CEC
:1007F000711C81149104A104B10429F780914D0169
:1008000090914E01019690934E0180934D01C80145
:100810000E94B101C114D10409F46CCF0E94CA0036
:10082000882309F467CF0E94000064CF8B899C89DC
:10083000009711F00E9435051C8A1B8A188E1F8AAA
:100840001E8A1D8A98CF8CEE91E00C94B101BB27D3
:100850004A3031F4992322F4BDE2909581959F4F5F
:100860000C943304BB27FB015527AA27880F991F37
:10087000AA1FA41710F0A41B83955051B9F7A05DCF
:10088000AA3308F0A95DA193009779F7B111B1934C
:100890001192CB010C944C04DC01FC01672F719187
:1008A0007723E1F7329704C07C916D937083629156
:1008B000AE17BF07C8F308952F923F924F925F92F1
:1008C0006F927F928F929F92AF92BF92CF92DF9260
:1008D000EF92FF920F931F93CF93DF93CDB7DEB7C5
:1008E000CA1BDB0B0FB6F894DEBF0FBECDBF099459
:1008F0002A88398848885F846E847D848C849B84B0
:10090000AA84B984C884DF80EE80FD800C811B81BD
:10091000AA81B981CE0FD11D0FB6F894DEBF0FBEEC
:10092000CDBFED010895EE0FFF1F0590F491E02D6E
:1009300009940F931F93CF93DF938230910510F4A6
:1009400082E090E0E091F401F091F50130E020E0E8
:10095000B0E0A0E0309799F42115310509F44AC0C0
:10096000281B390B24303105D8F58A819B8161150C
:10097000710589F1FB0193838283FE0111C04081DF
:1009800051810281138148175907E0F04817590730
:1009900099F4109761F012960C93129713961C938A
:1009A0003296CF01DF91CF911F910F91089500935F
:1009B000F4011093F501F4CF2115310551F04217E0
:1009C000530738F0A901DB019A01BD01DF01F801ED
:1009D000C1CFEF01F9CF9093F5018093F401CDCF12
:1009E000FE01E20FF31F8193919322503109398365
:1009F0002883D7CF2091F2013091F301232B41F4CA
:100A000020910201309103013093F3012093F20110
:100A100020910001309101012115310541F42DB7DC
:100A20003EB74091040150910501241B350BE09124
:100A3000F201F091F301E217F307A0F42E1B3F0B34
:100A40002817390778F0AC014E5F5F4F2417350740
:100A500048F04E0F5F1F5093F3014093F2018193D2
:100A600091939FCFF0E0E0E09CCFCF93DF9300978E
:100A7000E9F0FC01329713821282A091F401B09147
:100A8000F501ED0130E020E01097A1F420813181E3
:100A9000820F931F2091F2013091F301281739073B
:100AA00009F061C0F093F301E093F201DF91CF917F
:100AB0000895EA01CE17DF07E8F54A815B819E01C0
:100AC00041155105B1F7E901FB83EA834991599139
:100AD000C40FD51FEC17FD0761F480819181029648
:100AE000840F951FE90199838883828193819B8379
:100AF0008A83F0E0E0E012968D919C911397009725
:100B0000B9F52D913C911197CD010296820F931F5B
:100B10002091F2013091F3012817390739F6309707
:100B200051F51092F5011092F401B093F301A093E6
:100B3000F201BCCFD383C28340815181840F951FC2
:100B4000C817D90761F44E5F5F4F88819981480FBC
:100B5000591F518340838A819B819383828321150E
:100B6000310509F0B0CFF093F501E093F4019ECF89
:100B7000FD01DC01C0CF13821282D7CFB0E0A0E02C
:100B8000E4ECF5E00C945E048C01009751F4CB0189
:100B90000E9499048C01C801CDB7DEB7E0E10C9446
:100BA0007A04FC01E60FF71F9C0122503109E2177D
:100BB000F30708F49DC0D901CD91DC911197C617B8
:100BC000D70798F0C530D10530F3CE0104978617CA
:100BD000970708F3C61BD70B2297C193D1936D9348
:100BE0007C93CF010E943505D6CF5B01AC1ABD0ABC
:100BF0004C018C0E9D1EA091F401B091F501512C79
:100C0000412CF12CE12C109731F58091F20190915B
:100C1000F3018815990509F05CC04616570608F0DF
:100C200058C08091000190910101009741F48DB767
:100C30009EB74091040150910501841B950BE81764
:100C4000F90708F055C0F093F301E093F201F901C0
:100C500071836083A0CF8D919C91119712966C90B7
:100C6000129713967C901397A815B90559F56C0146
:100C700042E0C40ED11CCA14DB0420F1AC014A19B5
:100C80005B09DA011296159780F0628273825183B4
:100C90004083D9016D937C93E114F10471F0D70185
:100CA0001396FC93EE93129776CF22968C0F9D1F8E
:100CB000F90191838083F301EFCFF093F501E09385
:100CC000F40169CF4816590608F42C017D01D301BF
:100CD0009ACFCB010E9499047C01009749F0AE01A4
:100CE000B8010E947B06C8010E943505870153CFD9
:100CF00010E000E050CFFB01DC0102C001900D923A
:100D000041505040D8F70895FB01DC0101900D924D
:100D10000020E1F7089510E0C5E3D0E004C0FE0133
:100D20000E9493042196C633D107C9F7F894FFCFE8
:100D30000000F601800000000000000160008D004E
:100D40004D01BE009C00B0000D0A002073005072DF
:100D50006F6772616D6120636F6E7461646F7200A2
:100D60003D3D3D3D3D3D3D3D3D3D3D3D3D3D3D3DB3
:040D70003D3D000005
:107E0000112484B714BE81FFF0D085E080938100F7
:107E100082E08093C00088E18093C10086E0809377
:107E2000C20080E18093C4008EE0C9D0259A86E02C
:107E300020E33CEF91E0309385002093840096BBD3
:107E4000B09BFECF1D9AA8958150A9F7CC24DD24C4
:107E500088248394B5E0AB2EA1E19A2EF3E0BF2EE7
:107E6000A2D0813461F49FD0082FAFD0023811F036
:107E7000013811F484E001C083E08DD089C08234E0
:107E800011F484E103C0853419F485E0A6D080C0E4
:107E9000853579F488D0E82EFF2485D0082F10E0AE
:107EA000102F00270E291F29000F111F8ED06801E7
:107EB0006FC0863521F484E090D080E0DECF843638
:107EC00009F040C070D06FD0082F6DD080E0C81688
:107ED00080E7D80618F4F601B7BEE895C0E0D1E017
:107EE00062D089930C17E1F7F0E0CF16F0E7DF06D8
:107EF00018F0F601B7BEE89568D007B600FCFDCFD4
:107F0000A601A0E0B1E02C9130E011968C91119780
:107F100090E0982F8827822B932B1296FA010C0160
:107F200087BEE89511244E5F5F4FF1E0A038BF0790
:107F300051F7F601A7BEE89507B600FCFDCF97BE46
:107F4000E89526C08437B1F42ED02DD0F82E2BD052
:107F50003CD0F601EF2C8F010F5F1F4F84911BD097
:107F6000EA94F801C1F70894C11CD11CFA94CF0C13
:107F7000D11C0EC0853739F428D08EE10CD085E9AC
:107F80000AD08FE07ACF813511F488E018D01DD067
:107F900080E101D065CF982F8091C00085FFFCCF94
:107FA0009093C60008958091C00087FFFCCF809118
:107FB000C00084FD01C0A8958091C6000895E0E648
:107FC000F0E098E1908380830895EDDF803219F02E
:107FD00088E0F5DFFFCF84E1DECF1F93182FE3DFCA
:107FE0001150E9F7F2DF1F91089580E0E8DFEE27F6
:047FF000FF270994CA
:027FFE00040479
:00000001FF
