:100000000C9436000C945E000C945E000C945E0020
:100010000C945E000C945E000C945E000C945E00E8
:100020000C945E000C945E000C945E000C945E00D8
:100030000C945E000C945E000C945E000C945E00C8
:100040000C94E7020C945E000C94B5020C948F02A1
:100050000C945E000C945E000C945E000C945E00A8
:100060000C945E000C945E003103D90411241FBE71
:10007000CFEFD8E0DEBFCDBF22E0A4E4B1E001C005
:100080001D92A230B207E1F711E0A0E0B1E0ECEA86
:10009000FEE002C005900D92A434B107D9F710E03C
:1000A000C5E3D0E004C02197FE010E945105C4338E
:1000B000D107C9F70E94DA030C9449070C94000099
:1000C000AF92BF92CF92DF92EF92FF920F931F9366
:1000D000CF93DF936C017B018B01040F151FEB01A4
:1000E0005E01AE18BF08C017D10759F06991D6015B
:1000F000ED91FC910190F081E02DC6010995892BCD
:1001000079F7C501DF91CF911F910F91FF90EF908B
:10011000DF90CF90BF90AF900895FC01538D448D38
:10012000252F30E0842F90E0821B930B541710F0A2
:10013000CF96089501970895FC01918D828D9817AF
:1001400061F0A28DAE0FBF2FB11D5D968C91928D87
:100150009F5F9F73928F90E008958FEF9FEF0895B8
:10016000FC01918D828D981731F0828DE80FF11D81
:10017000858D90E008958FEF9FEF0895FC01918D9C
:10018000228D892F90E0805C9F4F821B91098F7395
:10019000992708958FE491E00E94BE0021E0892B09
:1001A00009F420E0822F089580E090E0892B29F067
:1001B0000E94CA0081110C9400000895FC01A48DD6
:1001C000A80FB92FB11DA35ABF4F2C91848D90E079
:1001D00001968F739927848FA689B7892C93A0895C
:1001E000B1898C91837080648C93938D848D9813E6
:1001F00006C00288F389E02D80818F7D8083089579
:10020000EF92FF920F931F93CF93DF93EC0181E066
:10021000888F9B8D8C8D98131AC0E889F98980810D
:1002200085FF15C09FB7F894EE89FF896083E88940
:10023000F98980818370806480839FBF81E090E032
:10024000DF91CF911F910F91FF90EF900895F62EBF
:100250000B8D10E00F5F1F4F0F731127E02E8C8D59
:100260008E110CC00FB607FCFACFE889F98980819E
:1002700085FFF5CFCE010E94DE00F1CFEB8DEC0FB4
:10028000FD2FF11DE35AFF4FF0829FB7F8940B8FBB
:10029000EA89FB8980818062CFCFCF93DF93EC0125
:1002A000888D8823B9F0AA89BB89E889F9898C915E
:1002B00085FD03C0808186FD0DC00FB607FCF7CF1A
:1002C0008C9185FFF2CF808185FFEDCFCE010E941A
:1002D000DE00E9CFDF91CF9108953FB7F894809188
:1002E000490190914A01A0914B01B0914C0126B572
:1002F000A89B05C02F3F19F00196A11DB11D3FBF5E
:10030000BA2FA92F982F8827BC01CD01620F711D2C
:10031000811D911D42E0660F771F881F991F4A9526
:10032000D1F7089542E050E068E171E08FE491E098
:100330000C946000CF93DF93FC0101900020E9F75B
:100340003197AF01481B590BBC018FE491E00E942B
:100350006000EC010E9492018C0F9D1FDF91CF91F4
:1003600008950F931F93CF93DF93EC0188819981B8
:10037000009759F02A813B812617370730F081E03A
:10038000DF91CF911F910F9108958B016F5F7F4F88
:100390000E947C06009759F0998388831B830A8307
:1003A0002C813D81232B59F7FC011082E8CF80E09E
:1003B000E7CFEF92FF920F931F93CF93DF936115D7
:1003C000710541F480E0DF91CF911F910F91FF9073
:1003D000EF90089541155105B1F07B01EC010C81BE
:1003E0001D81040F151FB8010E94B101882351F32C
:1003F000288139818C819D81B701820F931F0E94D2
:1004000042071D830C8381E0DECFCF93DF93EC01A5
:1004100088819981009711F00E94F3051982188252
:100420001D821C821B821A82DF91CF910895EF9268
:10043000FF920F931F93CF93DF93EC017B018A010F
:10044000BA010E94B10181110BC0CE010E940502C8
:10045000CE01DF91CF911F910F91FF90EF90089502
:100460001D830C83B701888199810E944207F0CFD8
:10047000EF92FF920F931F93CF93DF93CDB7DEB729
:1004800062970FB6F894DEBF0FBECDBF8C01CB01D3
:10049000F8011182108213821282158214824AE0BE
:1004A0009E012F5F3F4F7901B9010E94E504F701DA
:1004B00001900020E9F73197AF014E195F09B701AC
:1004C000C8010E94170262960FB6F894DEBF0FBEF5
:1004D000CDBFDF91CF911F910F91FF90EF900895C5
:1004E000CF93DF93EC01FB018617970749F06081FA
:1004F00071816115710541F0448155810E94170297
:10050000CE01DF91CF9108950E940502F9CFFC0141
:1005100080819181009711F00C94F30508951F924A
:100520000F920FB60F9211242F933F934F935F9327
:100530006F937F938F939F93AF93BF93EF93FF93AB
:100540008FE491E00E94DE00FF91EF91BF91AF91A7
:100550009F918F917F916F915F914F913F912F91DB
:100560000F900FBE0F901F9018951F920F920FB60D
:100570000F9211242F938F939F93EF93FF93E0910A
:100580005F01F09160018081E0916501F091660169
:1005900082FD1BC09081809168018F5F8F732091D5
:1005A0006901821741F0E0916801F0E0E15BFE4FE4
:1005B000958F80936801FF91EF919F918F912F917B
:1005C0000F900FBE0F901F9018958081F4CF1F924F
:1005D0000F920FB60F9211242F933F938F939F93F7
:1005E000AF93BF938091450190914601A09147013F
:1005F000B09148013091440123E0230F2D3758F585
:100600000196A11DB11D2093440180934501909353
:100610004601A0934701B093480180914901909110
:100620004A01A0914B01B0914C010196A11DB11D51
:100630008093490190934A01A0934B01B0934C01E0
:10064000BF91AF919F918F913F912F910F900FBECE
:100650000F901F90189526E8230F0296A11DB11D3B
:10066000D2CFCF93DF9300D000D000D0CDB7DEB78C
:10067000109252011092510188EE93E0A0E0B0E098
:100680008093530190935401A0935501B093560168
:100690008AE091E09093500180934F0185EC90E0C7
:1006A00090935C0180935B0184EC90E090935E01F9
:1006B00080935D0180EC90E09093600180935F01F6
:1006C00081EC90E0909362018093610182EC90E074
:1006D000909364018093630186EC90E090936601AF
:1006E00080936501109268011092690110926A016D
:1006F00010926B011092F9011092F8011092FB0117
:100700001092FA011092FD011092FC0150E040E0BD
:100710006AE171E088EF91E00E9417021092F30104
:100720001092F2011092F5011092F4011092F7016B
:100730001092F60143E050E06BE171E082EF91E04E
:100740000E94170270E060E0CE0101960E9438021C
:100750004091F6015091F7016091F2017091F3011F
:10076000CE0101960E94D901811104C0CE010196EB
:100770000E9405021092ED011092EC011092EF011F
:100780001092EE011092F1011092F001BE016F5F24
:100790007F4F8CEE91E00E947002CE0101960E9484
:1007A000870226960FB6F894DEBF0FBECDBFDF914D
:1007B000CF910895CF93DF93CDB7DEB72C970FB6C7
:1007C000F894DEBF0FBECDBF789484B5826084BD3F
:1007D00084B5816084BD85B5826085BD85B5816045
:1007E00085BD80916E00816080936E0010928100C3
:1007F000809181008260809381008091810081607E
:10080000809381008091800081608093800080913E
:10081000B10084608093B1008091B00081608093CA
:10082000B00080917A00846080937A0080917A0091
:10083000826080937A0080917A00816080937A0050
:1008400080917A00806880937A001092C100E091D4
:100850005F01F091600182E08083E0915B01F091A3
:100860005C011082E0915D01F0915E018FEC80836C
:1008700010926701E0916301F091640186E080834A
:10088000E0916101F0916201808180618083E0915B
:100890006101F0916201808188608083E091610153
:1008A000F0916201808180688083E0916101F09124
:1008B000620180818F7D80838FE191E00E949A01A7
:1008C00081E391E00E949A0100E010E060914D0107
:1008D00070914E01CE0101960E9438024091F601BE
:1008E0005091F7016091F2017091F301CE010196F0
:1008F0000E94D901811104C0CE0101960E94050217
:1009000018861F821A8619861C861B86BE016F5F99
:100910007F4FCE0107960E947002CE0101960E9481
:1009200087024B855C856F8178858FE491E00E941A
:1009300060000E9492010E946D014B015C0188EEF3
:10094000C82E83E0D82EE12CF12C0E946D0168198D
:1009500079098A099B09683E734081059105A8F3CE
:1009600021E0C21AD108E108F10888EE880E83E080
:10097000981EA11CB11CC114D104E104F10429F793
:1009800080914D0190914E01019690934E0180937C
:100990004D01CE0107960E9487020115110509F449
:1009A00095CF0E94CA00882309F490CF0E940000CE
:1009B0008DCF8CEE91E00E94870282EF91E00E9441
:1009C000870288EF91E00C948702BB274A3031F40C
:1009D000992322F4BDE2909581959F4F0C94F104E8
:1009E000BB27FB015527AA27880F991FAA1FA41709
:1009F00010F0A41B83955051B9F7A05DAA3308F0FD
:100A0000A95DA193009779F7B111B1931192CB0130
:100A10000C940A05DC01FC01672F71917723E1F743
:100A2000329704C07C916D9370836291AE17BF07BB
:100A3000C8F308952F923F924F925F926F927F92E8
:100A40008F929F92AF92BF92CF92DF92EF92FF92DE
:100A50000F931F93CF93DF93CDB7DEB7CA1BDB0B8A
:100A60000FB6F894DEBF0FBECDBF09942A8839882F
:100A700048885F846E847D848C849B84AA84B98436
:100A8000C884DF80EE80FD800C811B81AA81B98142
:100A9000CE0FD11D0FB6F894DEBF0FBECDBFED0156
:100AA0000895EE0FFF1F0590F491E02D09940F9328
:100AB0001F93CF93DF938230910510F482E090E092
:100AC000E0910002F091010230E020E0B0E0A0E00F
:100AD000309799F42115310509F44AC0281B390BC8
:100AE00024303105D8F58A819B816115710589F122
:100AF000FB0193838283FE0111C0408151810281F9
:100B0000138148175907E0F04817590799F41097CF
:100B100061F012960C93129713961C933296CF01A4
:100B2000DF91CF911F910F910895009300021093D0
:100B30000102F4CF2115310551F04217530738F067
:100B4000A901DB019A01BD01DF01F801C1CFEF016D
:100B5000F9CF9093010280930002CDCFFE01E20F06
:100B6000F31F819391932250310939832883D7CF82
:100B70002091FE013091FF01232B41F420910201CD
:100B8000309103013093FF012093FE012091000179
:100B9000309101012115310541F42DB73EB7409147
:100BA000040150910501241B350BE091FE01F091E9
:100BB000FF01E217F307A0F42E1B3F0B281739079C
:100BC00078F0AC014E5F5F4F2417350748F04E0FA9
:100BD0005F1F5093FF014093FE01819391939FCF3C
:100BE000F0E0E0E09CCFCF93DF930097E9F0FC01C9
:100BF000329713821282A0910002B0910102ED019E
:100C000030E020E01097A1F420813181820F931F02
:100C10002091FE013091FF012817390709F061C0CA
:100C2000F093FF01E093FE01DF91CF910895EA0177
:100C3000CE17DF07E8F54A815B819E01411551051A
:100C4000B1F7E901FB83EA8349915991C40FD51F9C
:100C5000EC17FD0761F4808191810296840F951F46
:100C6000E90199838883828193819B838A83F0E061
:100C7000E0E012968D919C9113970097B9F52D9114
:100C80003C911197CD010296820F931F2091FE0196
:100C90003091FF012817390739F6309751F5109236
:100CA000010210920002B093FF01A093FE01BCCF9D
:100CB000D383C28340815181840F951FC817D90700
:100CC00061F44E5F5F4F88819981480F591F5183AE
:100CD00040838A819B81938382832115310509F0AA
:100CE000B0CFF0930102E09300029ECFFD01DC0142
:100CF000C0CF13821282D7CFB0E0A0E0E2E8F6E0E6
:100D00000C941C058C01009751F4CB010E945705EF
:100D10008C01C801CDB7DEB7E0E10C943805FC01C9
:100D2000E60FF71F9C0122503109E217F30708F480
:100D30009DC0D901CD91DC911197C617D70798F0C6
:100D4000C530D10530F3CE0104978617970708F315
:100D5000C61BD70B2297C193D1936D937C93CF0180
:100D60000E94F305D6CF5B01AC1ABD0A4C018C0E74
:100D70009D1EA0910002B0910102512C412CF12C3A
:100D8000E12C109731F58091FE019091FF018815BB
:100D9000990509F05CC04616570608F058C08091C6
:100DA000000190910101009741F48DB79EB74091E9
:100DB000040150910501841B950BE817F90708F011
:100DC00055C0F093FF01E093FE01F9017183608348
:100DD000A0CF8D919C91119712966C9012971396BB
:100DE0007C901397A815B90559F56C0142E0C40E23
:100DF000D11CCA14DB0420F1AC014A195B09DA01E9
:100E00001296159780F06282738251834083D901D4
:100E10006D937C93E114F10471F0D7011396FC9368
:100E2000EE93129776CF22968C0F9D1FF901918336
:100E30008083F301EFCFF0930102E093000269CFCA
:100E40004816590608F42C017D01D3019ACFCB0135
:100E50000E9457057C01009749F0AE01B8010E943D
:100E60003907C8010E94F305870153CF10E000E065
:100E700050CFFB01DC0102C001900D924150504067
:100E8000D8F70895FB01DC0101900D920020E1F7F5
:100E9000089510E0C5E3D0E004C0FE010E945105B2
:0C0EA0002196C633D107C9F7F894FFCFA4
:100EAC0000000202800000000000000160008D00C4
:100EBC004D01BE009C00B0000D0A00207373005061
:100ECC00726F6772616D6120636F6E7461646F72B3
:100EDC00003D3D3D3D3D3D3D3D3D3D3D3D3D3D3D73
:040EEC003D3D3D004B
:00000001FF
