:100000000C9436000C945E000C945E000C945E0020
:100010000C945E000C945E000C945E000C945E00E8
:100020000C945E000C945E000C945E000C945E00D8
:100030000C945E000C945E000C945E000C945E00C8
:100040000C94E3010C945E000C9453020C942D026A
:100050000C945E000C945E000C945E000C945E00A8
:100060000C945E000C945E0085023C0411241FBEBB
:10007000CFEFD8E0DEBFCDBF22E0A8E6B1E001C0FF
:100080001D92A831B207E1F711E0A0E0B1E0E2E093
:10009000FDE002C005900D92A836B107D9F710E037
:1000A000C5E3D0E004C02197FE010E947C04C43364
:1000B000D107C9F70E94FD020C9474060C9400004D
:1000C0000895AF92BF92CF92DF92EF92FF920F937B
:1000D0001F93CF93DF936C017B018B01040F151FDE
:1000E000EB015E01AE18BF08C017D10759F0699146
:1000F000D601ED91FC910190F081E02DC6010995AA
:10010000892B79F7C501DF91CF911F910F91FF9056
:10011000EF90DF90CF90BF90AF900895FC01538D8A
:10012000448D252F30E0842F90E0821B930B5417D1
:1001300010F0CF96089501970895FC01918D828D5E
:10014000981761F0A28DAE0FBF2FB11D5D968C91F7
:10015000928D9F5F9F73928F90E008958FEF9FEF36
:1001600008952FB7F89480916D0190916E01A09140
:100170006F01B09170012FBF8093790190937A0144
:10018000A0937B01B0937C0181E791E00E949D00E8
:1001900097FF26C02FB7F89480916D0190916E0162
:1001A000A0916F01B09170012FBF409179015091E2
:1001B0007A0160917B0170917C01841B950BA60BE9
:1001C000B70B409175015091760160917701709164
:1001D000780184179507A607B707B0F28FEF9FEF56
:1001E0000895FC01918D828D981731F0828DE80F72
:1001F000F11D858D90E008958FEF9FEF0895FC012C
:10020000918D228D892F90E0805C9F4F821B9109F8
:100210008F739927089581E791E00E94FF0021E004
:10022000892B09F420E0822F089580E090E0892B4B
:1002300029F00E940B0181110C9400000895FC012B
:10024000A48DA80FB92FB11DA35ABF4F2C91848D37
:1002500090E001968F739927848FA689B7892C9394
:10026000A089B1898C91837080648C93938D848DE7
:10027000981306C00288F389E02D80818F7D8083EA
:100280000895EF92FF920F931F93CF93DF93EC01AA
:1002900081E0888F9B8D8C8D98131AC0E889F9892D
:1002A000808185FF15C09FB7F894EE89FF89608330
:1002B000E889F98980818370806480839FBF81E0B1
:1002C00090E0DF91CF911F910F91FF90EF900895F3
:1002D000F62E0B8D10E00F5F1F4F0F731127E02ECE
:1002E0008C8D8E110CC00FB607FCFACFE889F98906
:1002F000808185FFF5CFCE010E941F01F1CFEB8DEC
:10030000EC0FFD2FF11DE35AFF4FF0829FB7F894D9
:100310000B8FEA89FB8980818062CFCFCF93DF93F7
:10032000EC01888D8823B9F0AA89BB89E889F9890D
:100330008C9185FD03C0808186FD0DC00FB607FC42
:10034000F7CF8C9185FFF2CF808185FFEDCFCE0175
:100350000E941F01E9CFDF91CF910895FC01019028
:100360000020E9F73197AF01481B590BBC0181E729
:1003700091E00C9461000F931F93CF93DF93EC01F6
:1003800088819981009759F02A813B812617370788
:1003900030F081E0DF91CF911F910F9108958B0193
:1003A0006F5F7F4F0E94A705009759F0998388835C
:1003B0001B830A832C813D81232B59F7FC0110827A
:1003C000E8CF80E0E7CF1F920F920FB60F92112473
:1003D0002F933F938F939F93AF93BF9380916D0122
:1003E00090916E01A0916F01B091700130916C01FC
:1003F00023E0230F2D3758F50196A11DB11D209341
:100400006C0180936D0190936E01A0936F01B09386
:1004100070018091680190916901A0916A01B09189
:100420006B010196A11DB11D809368019093690134
:10043000A0936A01B0936B01BF91AF919F918F918F
:100440003F912F910F900FBE0F901F90189526E8A7
:10045000230F0296A11DB11DD2CF1F920F920FB68E
:100460000F9211242F933F934F935F936F937F933A
:100470008F939F93AF93BF93EF93FF9381E791E0A7
:100480000E941F01FF91EF91BF91AF919F918F91BA
:100490007F916F915F914F913F912F910F900FBE80
:1004A0000F901F9018951F920F920FB60F92112464
:1004B0002F938F939F93EF93FF93E0918101F0919E
:1004C00082018081E0918701F091880182FD1BC04B
:1004D000908180918A018F5F8F7320918B018217A9
:1004E00041F0E0918A01F0E0EF58FE4F958F809344
:1004F0008A01FF91EF919F918F912F910F900FBEE5
:100500000F901F9018958081F4CF10927401109273
:10051000730188EE93E0A0E0B0E0809375019093C2
:100520007601A0937701B09378018AE091E09093EF
:1005300072018093710185EC90E090937E0180932D
:100540007D0184EC90E09093800180937F0180ECAA
:1005500090E0909382018093810181EC90E09093F0
:1005600084018093830182EC90E0909386018093D4
:10057000850186EC90E0909388018093870110922A
:100580008A0110928B0110928C0110928D011092B1
:100590000F0210920E02109211021092100210928D
:1005A00013021092120268E070E08EE092E00E9466
:1005B000BB0120910E0230910F02811113C0211551
:1005C000310519F0C9010E941E0510920F02109208
:1005D0000E02109213021092120210921102109247
:1005E0001002089588E090E0909313028093120225
:1005F00068E171E0C9010C946D06CF93DF93CDB72C
:10060000DEB728970FB6F894DEBF0FBECDBF789443
:1006100084B5826084BD84B5816084BD85B5826007
:1006200085BD85B5816085BD80916E0081608093B8
:100630006E00109281008091810082608093810021
:100640008091810081608093810080918000816031
:10065000809380008091B10084608093B10080918C
:10066000B00081608093B00080917A0084608093B4
:100670007A0080917A00826080937A0080917A007B
:10068000816080937A0080917A00806880937A00FC
:100690001092C100E0918101F091820182E080839B
:1006A000E0917D01F0917E011082E0917F01F09157
:1006B00080018FEC808310928901E0918501F09197
:1006C000860186E08083E0918301F091840180813E
:1006D00080618083E0918301F09184018081886052
:1006E0008083E0918301F091840180818068808320
:1006F000E0918301F091840180818F7D808381E28C
:1007000091E00E94AE018CE391E00E94AE018FE384
:1007100091E00E94AE018CE391E00E94AE0180E086
:10072000E82E80E0F82E81E791E00E94FF00181685
:1007300019060CF07CC01A8219821C821B821E8250
:100740001D8270E060E0CE0101960E94BB0129810C
:100750003A8181112BC02115310519F0C9010E9480
:100760001E051A8219821E821D821C821B820E9413
:10077000B10097FD23C08F8318860D811E810F5F06
:100780001F4FB801CE0101960E94BB01882379F367
:1007900029813A818D819E81BE01695F7F4F820FE1
:1007A000931F0E946D061E830D83E1CF1E821D8262
:1007B0006EE371E0C9010E946D06D9CF80910E02EF
:1007C00090910F02009709F440C069817A81611508
:1007D0007105C9F140911002509111022D813E81A5
:1007E0004217530780F10E946D068D819E81909380
:1007F0001302809312021E821D8289819A810097C2
:1008000011F00E941E058AE591E00E94AE01409120
:1008100012025091130260910E0270910F0281E753
:1008200091E00E9461008CE391E00E94AE01E1142E
:10083000F10409F478CF0E940B01882309F473CFE7
:100840000E94000070CF0E941E0589819A819093BA
:100850000F0280930E028B819C81909311028093F2
:1008600010028D819E8190931302809312021A824E
:1008700019821C821B82BFCF80910E0290910F02C1
:10088000009711F00C941E0508952F923F924F92FD
:100890005F926F927F928F929F92AF92BF92CF9210
:1008A000DF92EF92FF920F931F93CF93DF93CDB719
:1008B000DEB7CA1BDB0B0FB6F894DEBF0FBECDBF91
:1008C00009942A88398848885F846E847D848C8462
:1008D0009B84AA84B984C884DF80EE80FD800C816B
:1008E0001B81AA81B981CE0FD11D0FB6F894DEBF4E
:1008F0000FBECDBFED010895EE0FFF1F0590F491DF
:10090000E02D09940F931F93CF93DF9382309105CD
:1009100010F482E090E0E0911602F091170230E0CE
:1009200020E0B0E0A0E0309799F42115310509F4FA
:100930004AC0281B390B24303105D8F58A819B81A8
:100940006115710589F1FB0193838283FE0111C05A
:10095000408151810281138148175907E0F04817FF
:10096000590799F4109761F012960C931297139609
:100970001C933296CF01DF91CF911F910F91089573
:100980000093160210931702F4CF2115310551F090
:100990004217530738F0A901DB019A01BD01DF01BD
:1009A000F801C1CFEF01F9CF90931702809316029F
:1009B000CDCFFE01E20FF31F8193919322503109B5
:1009C00039832883D7CF2091140230911502232B2D
:1009D00041F42091020130910301309315022093DC
:1009E000140220910001309101012115310541F4DB
:1009F0002DB73EB74091040150910501241B350BE2
:100A0000E0911402F0911502E217F307A0F42E1BF7
:100A10003F0B2817390778F0AC014E5F5F4F241762
:100A2000350748F04E0F5F1F509315024093140294
:100A3000819391939FCFF0E0E0E09CCFCF93DF9341
:100A40000097E9F0FC01329713821282A0911602FE
:100A5000B0911702ED0130E020E01097A1F4208161
:100A60003181820F931F20911402309115022817B3
:100A7000390709F061C0F0931502E0931402DF9189
:100A8000CF910895EA01CE17DF07E8F54A815B812F
:100A90009E0141155105B1F7E901FB83EA834991B4
:100AA0005991C40FD51FEC17FD0761F48081918126
:100AB0000296840F951FE90199838883828193812F
:100AC0009B838A83F0E0E0E012968D919C911397CE
:100AD0000097B9F52D913C911197CD010296820FA7
:100AE000931F20911402309115022817390739F607
:100AF000309751F51092170210921602B09315021A
:100B0000A0931402BCCFD383C28340815181840F50
:100B1000951FC817D90761F44E5F5F4F888199818F
:100B2000480F591F518340838A819B81938382831D
:100B30002115310509F0B0CFF0931702E0931602AA
:100B40009ECFFD01DC01C0CF13821282D7CFB0E06F
:100B5000A0E0EDEAF5E00C9447048C01009751F415
:100B6000CB010E9482048C01C801CDB7DEB7E0E161
:100B70000C946304FC01E60FF71F9C01225031091D
:100B8000E217F30708F49DC0D901CD91DC911197CC
:100B9000C617D70798F0C530D10530F3CE010497BA
:100BA0008617970708F3C61BD70B2297C193D193DB
:100BB0006D937C93CF010E941E05D6CF5B01AC1ACA
:100BC000BD0A4C018C0E9D1EA0911602B091170219
:100BD000512C412CF12CE12C109731F5809114020D
:100BE000909115028815990509F05CC046165706C4
:100BF00008F058C08091000190910101009741F4E4
:100C00008DB79EB74091040150910501841B950B4F
:100C1000E817F90708F055C0F0931502E0931402A5
:100C2000F90171836083A0CF8D919C9111971296E9
:100C30006C90129713967C901397A815B90559F5E7
:100C40006C0142E0C40ED11CCA14DB0420F1AC01DB
:100C50004A195B09DA011296159780F06282738255
:100C600051834083D9016D937C93E114F10471F0B9
:100C7000D7011396FC93EE93129776CF22968C0FA2
:100C80009D1FF90191838083F301EFCFF093170249
:100C9000E093160269CF4816590608F42C017D012D
:100CA000D3019ACFCB010E9482047C01009749F0C6
:100CB000AE01B8010E946406C8010E941E058701AA
:100CC00053CF10E000E050CFFB01DC0102C00190E7
:100CD0000D9241505040D8F70895FB01DC0101907E
:100CE0000D920020E1F7089510E0C5E3D0E004C0C4
:100CF000FE010E947C042196C633D107C9F7F894FF
:020D0000FFCF23
:100D020000001802800000000000410161008E0016
:100D12008E01FF009D00F100696E69636961646F75
:100D22000050726F6772616D61206465206C65634B
:100D3200747572612073657269616C000D0A003D01
:100D42003D3D3D3D3D3D3D3D3D3D3D3D3D3D3D3DD1
:100D52003D3D3D3D3D3D3D3D3D0048617320656E5D
:080D6200766961646F3A20001C
:00000001FF
